{
  "_format": "hh-sol-artifact-1",
  "contractName": "CredentialRegistry",
  "sourceName": "contracts/CredentialRegistry.sol",
  "abi": [
    {
      "inputs": [],
      "stateMutability": "nonpayable",
      "type": "constructor"
    },
    {
      "anonymous": false,
      "inputs": [
        {
          "indexed": true,
          "internalType": "bytes32",
          "name": "credentialHash",
          "type": "bytes32"
        },
        {
          "indexed": true,
          "internalType": "address",
          "name": "issuer",
          "type": "address"
        },
        {
          "indexed": true,
          "internalType": "address",
          "name": "recipient",
          "type": "address"
        },
        {
          "indexed": false,
          "internalType": "string",
          "name": "ipfsCID",
          "type": "string"
        }
      ],
      "name": "CredentialIssued",
      "type": "event"
    },
    {
      "anonymous": false,
      "inputs": [
        {
          "indexed": true,
          "internalType": "bytes32",
          "name": "credentialHash",
          "type": "bytes32"
        },
        {
          "indexed": true,
          "internalType": "address",
          "name": "issuer",
          "type": "address"
        }
      ],
      "name": "CredentialRevoked",
      "type": "event"
    },
    {
      "anonymous": false,
      "inputs": [
        {
          "indexed": true,
          "internalType": "address",
          "name": "issuer",
          "type": "address"
        }
      ],
      "name": "IssuerAuthorized",
      "type": "event"
    },
    {
      "anonymous": false,
      "inputs": [
        {
          "indexed": true,
          "internalType": "address",
          "name": "issuer",
          "type": "address"
        }
      ],
      "name": "IssuerRevoked",
      "type": "event"
    },
    {
      "anonymous": false,
      "inputs": [
        {
          "indexed": true,
          "internalType": "address",
          "name": "user",
          "type": "address"
        },
        {
          "indexed": false,
          "internalType": "uint256",
          "name": "newScore",
          "type": "uint256"
        }
      ],
      "name": "RepScoreUpdated",
      "type": "event"
    },
    {
      "inputs": [
        {
          "internalType": "address",
          "name": "issuer",
          "type": "address"
        }
      ],
      "name": "authorizeIssuer",
      "outputs": [],
      "stateMutability": "nonpayable",
      "type": "function"
    },
    {
      "inputs": [
        {
          "internalType": "address",
          "name": "",
          "type": "address"
        }
      ],
      "name": "authorizedIssuers",
      "outputs": [
        {
          "internalType": "bool",
          "name": "",
          "type": "bool"
        }
      ],
      "stateMutability": "view",
      "type": "function"
    },
    {
      "inputs": [
        {
          "internalType": "address",
          "name": "issuer",
          "type": "address"
        }
      ],
      "name": "checkIssuer",
      "outputs": [
        {
          "internalType": "bool",
          "name": "",
          "type": "bool"
        }
      ],
      "stateMutability": "view",
      "type": "function"
    },
    {
      "inputs": [
        {
          "internalType": "bytes32",
          "name": "",
          "type": "bytes32"
        }
      ],
      "name": "credentials",
      "outputs": [
        {
          "internalType": "address",
          "name": "issuer",
          "type": "address"
        },
        {
          "internalType": "address",
          "name": "recipient",
          "type": "address"
        },
        {
          "internalType": "string",
          "name": "ipfsCID",
          "type": "string"
        },
        {
          "internalType": "uint256",
          "name": "issuedAt",
          "type": "uint256"
        },
        {
          "internalType": "bool",
          "name": "revoked",
          "type": "bool"
        }
      ],
      "stateMutability": "view",
      "type": "function"
    },
    {
      "inputs": [
        {
          "internalType": "address",
          "name": "",
          "type": "address"
        }
      ],
      "name": "devRepScores",
      "outputs": [
        {
          "internalType": "uint256",
          "name": "",
          "type": "uint256"
        }
      ],
      "stateMutability": "view",
      "type": "function"
    },
    {
      "inputs": [
        {
          "internalType": "address",
          "name": "recipient",
          "type": "address"
        },
        {
          "internalType": "string",
          "name": "ipfsCID",
          "type": "string"
        },
        {
          "internalType": "bytes32",
          "name": "credentialHash",
          "type": "bytes32"
        }
      ],
      "name": "issueCredential",
      "outputs": [],
      "stateMutability": "nonpayable",
      "type": "function"
    },
    {
      "inputs": [],
      "name": "owner",
      "outputs": [
        {
          "internalType": "address",
          "name": "",
          "type": "address"
        }
      ],
      "stateMutability": "view",
      "type": "function"
    },
    {
      "inputs": [
        {
          "internalType": "bytes32",
          "name": "credentialHash",
          "type": "bytes32"
        }
      ],
      "name": "revokeCredential",
      "outputs": [],
      "stateMutability": "nonpayable",
      "type": "function"
    },
    {
      "inputs": [
        {
          "internalType": "address",
          "name": "issuer",
          "type": "address"
        }
      ],
      "name": "revokeIssuer",
      "outputs": [],
      "stateMutability": "nonpayable",
      "type": "function"
    },
    {
      "inputs": [
        {
          "internalType": "address",
          "name": "user",
          "type": "address"
        },
        {
          "internalType": "uint256",
          "name": "repos",
          "type": "uint256"
        },
        {
          "internalType": "uint256",
          "name": "badges",
          "type": "uint256"
        },
        {
          "internalType": "uint256",
          "name": "multiplier",
          "type": "uint256"
        }
      ],
      "name": "updateRepScore",
      "outputs": [],
      "stateMutability": "nonpayable",
      "type": "function"
    },
    {
      "inputs": [
        {
          "internalType": "bytes32",
          "name": "credentialHash",
          "type": "bytes32"
        }
      ],
      "name": "verifyCredential",
      "outputs": [
        {
          "internalType": "bool",
          "name": "isValid",
          "type": "bool"
        },
        {
          "internalType": "address",
          "name": "issuer",
          "type": "address"
        },
        {
          "internalType": "address",
          "name": "recipient",
          "type": "address"
        },
        {
          "internalType": "string",
          "name": "ipfsCID",
          "type": "string"
        },
        {
          "internalType": "uint256",
          "name": "issuedAt",
          "type": "uint256"
        },
        {
          "internalType": "bool",
          "name": "isRevoked",
          "type": "bool"
        }
      ],
      "stateMutability": "view",
      "type": "function"
    }
  ],
  "bytecode": "0x608060405234801561001057600080fd5b50336000806101000a81548173ffffffffffffffffffffffffffffffffffffffff021916908373ffffffffffffffffffffffffffffffffffffffff16021790555060018060003373ffffffffffffffffffffffffffffffffffffffff1673ffffffffffffffffffffffffffffffffffffffff16815260200190815260200160002060006101000a81548160ff021916908315150217905550611b7d806100b76000396000f3fe608060405234801561001057600080fd5b50600436106100a85760003560e01c8063bb508a5a11610071578063bb508a5a1461016c578063bbe939f11461019c578063c6f3a9aa146101b8578063ca6eec78146101e8578063f10705e614610204578063f731fa0f14610220576100a8565b8062629679146100ad578063299d0348146100c9578063436693d5146100fd5780634dbf87cc146101195780638da5cb5b1461014e575b600080fd5b6100c760048036038101906100c29190610fa7565b610250565b005b6100e360048036038101906100de919061100a565b610408565b6040516100f495949392919061110a565b60405180910390f35b61011760048036038101906101129190610fa7565b610513565b005b610133600480360381019061012e919061100a565b6106cb565b60405161014596959493929190611164565b60405180910390f35b6101566108a5565b60405161016391906111cc565b60405180910390f35b61018660048036038101906101819190610fa7565b6108c9565b60405161019391906111e7565b60405180910390f35b6101b660048036038101906101b1919061122e565b6108e1565b005b6101d260048036038101906101cd9190610fa7565b610a21565b6040516101df9190611295565b60405180910390f35b61020260048036038101906101fd919061100a565b610a77565b005b61021e60048036038101906102199190611315565b610c4e565b005b61023a60048036038101906102359190610fa7565b610f1f565b6040516102479190611295565b60405180910390f35b60008054906101000a900473ffffffffffffffffffffffffffffffffffffffff1673ffffffffffffffffffffffffffffffffffffffff163373ffffffffffffffffffffffffffffffffffffffff16146102de576040517f08c379a00000000000000000000000000000000000000000000000000000000081526004016102d5906113fb565b60405180910390fd5b600160008273ffffffffffffffffffffffffffffffffffffffff1673ffffffffffffffffffffffffffffffffffffffff16815260200190815260200160002060009054906101000a900460ff1661036a576040517f08c379a000000000000000000000000000000000000000000000000000000000815260040161036190611467565b60405180910390fd5b6000600160008373ffffffffffffffffffffffffffffffffffffffff1673ffffffffffffffffffffffffffffffffffffffff16815260200190815260200160002060006101000a81548160ff0219169083151502179055508073ffffffffffffffffffffffffffffffffffffffff167f95a4c2ae425bb769549aa1a911911ff57c17ae811ae8c8962d0b9746fcb1539760405160405180910390a250565b60026020528060005260406000206000915090508060000160009054906101000a900473ffffffffffffffffffffffffffffffffffffffff16908060010160009054906101000a900473ffffffffffffffffffffffffffffffffffffffff1690806002018054610477906114b6565b80601f01602080910402602001604051908101604052809291908181526020018280546104a3906114b6565b80156104f05780601f106104c5576101008083540402835291602001916104f0565b820191906000526020600020905b8154815290600101906020018083116104d357829003601f168201915b5050505050908060030154908060040160009054906101000a900460ff16905085565b60008054906101000a900473ffffffffffffffffffffffffffffffffffffffff1673ffffffffffffffffffffffffffffffffffffffff163373ffffffffffffffffffffffffffffffffffffffff16146105a1576040517f08c379a0000000000000000000000000000000000000000000000000000000008152600401610598906113fb565b60405180910390fd5b600160008273ffffffffffffffffffffffffffffffffffffffff1673ffffffffffffffffffffffffffffffffffffffff16815260200190815260200160002060009054906101000a900460ff161561062e576040517f08c379a000000000000000000000000000000000000000000000000000000000815260040161062590611533565b60405180910390fd5b60018060008373ffffffffffffffffffffffffffffffffffffffff1673ffffffffffffffffffffffffffffffffffffffff16815260200190815260200160002060006101000a81548160ff0219169083151502179055508073ffffffffffffffffffffffffffffffffffffffff167f8b4006ca14f23d4e7aa8d120d1ab7c3761d650eefac1a5d6732dbea94b54ea2460405160405180910390a250565b600080600060606000806000600260008981526020019081526020016000206040518060a00160405290816000820160009054906101000a900473ffffffffffffffffffffffffffffffffffffffff1673ffffffffffffffffffffffffffffffffffffffff1673ffffffffffffffffffffffffffffffffffffffff1681526020016001820160009054906101000a900473ffffffffffffffffffffffffffffffffffffffff1673ffffffffffffffffffffffffffffffffffffffff1673ffffffffffffffffffffffffffffffffffffffff1681526020016002820180546107b1906114b6565b80601f01602080910402602001604051908101604052809291908181526020018280546107dd906114b6565b801561082a5780601f106107ff5761010080835404028352916020019161082a565b820191906000526020600020905b81548152906001019060200180831161080d57829003601f168201915b50505050508152602001600382015481526020016004820160009054906101000a900460ff161515151581525050905060008082606001511415905080801561087557508160800151155b82600001518360200151846040015185606001518660800151975097509750975097509750505091939550919395565b60008054906101000a900473ffffffffffffffffffffffffffffffffffffffff1681565b60036020528060005260406000206000915090505481565b600160003373ffffffffffffffffffffffffffffffffffffffff1673ffffffffffffffffffffffffffffffffffffffff16815260200190815260200160002060009054906101000a900460ff1661096d576040517f08c379a0000000000000000000000000000000000000000000000000000000008152600401610964906115c5565b60405180910390fd5b600081838561097c9190611614565b6109869190611648565b905080600360008773ffffffffffffffffffffffffffffffffffffffff1673ffffffffffffffffffffffffffffffffffffffff168152602001908152602001600020819055508473ffffffffffffffffffffffffffffffffffffffff167f3260b268a3bf241455558ce07e34f69b4c3f01de4c0cb6aebac74e5f4061539782604051610a1291906111e7565b60405180910390a25050505050565b6000600160008373ffffffffffffffffffffffffffffffffffffffff1673ffffffffffffffffffffffffffffffffffffffff16815260200190815260200160002060009054906101000a900460ff169050919050565b6000600260008381526020019081526020016000206003015403610ad0576040517f08c379a0000000000000000000000000000000000000000000000000000000008152600401610ac7906116d6565b60405180910390fd5b3373ffffffffffffffffffffffffffffffffffffffff166002600083815260200190815260200160002060000160009054906101000a900473ffffffffffffffffffffffffffffffffffffffff1673ffffffffffffffffffffffffffffffffffffffff1614610b74576040517f08c379a0000000000000000000000000000000000000000000000000000000008152600401610b6b90611742565b60405180910390fd5b6002600082815260200190815260200160002060040160009054906101000a900460ff1615610bd8576040517f08c379a0000000000000000000000000000000000000000000000000000000008152600401610bcf906117ae565b60405180910390fd5b60016002600083815260200190815260200160002060040160006101000a81548160ff0219169083151502179055503373ffffffffffffffffffffffffffffffffffffffff16817fd3196f598a360c115a1de20d5a58021203793f1bf1a08efe55ee14545779606d60405160405180910390a350565b600160003373ffffffffffffffffffffffffffffffffffffffff1673ffffffffffffffffffffffffffffffffffffffff16815260200190815260200160002060009054906101000a900460ff16610cda576040517f08c379a0000000000000000000000000000000000000000000000000000000008152600401610cd1906115c5565b60405180910390fd5b6000600260008381526020019081526020016000206003015414610d33576040517f08c379a0000000000000000000000000000000000000000000000000000000008152600401610d2a9061181a565b60405180910390fd5b6040518060a001604052803373ffffffffffffffffffffffffffffffffffffffff1681526020018573ffffffffffffffffffffffffffffffffffffffff16815260200184848080601f016020809104026020016040519081016040528093929190818152602001838380828437600081840152601f19601f820116905080830192505050505050508152602001428152602001600015158152506002600083815260200190815260200160002060008201518160000160006101000a81548173ffffffffffffffffffffffffffffffffffffffff021916908373ffffffffffffffffffffffffffffffffffffffff16021790555060208201518160010160006101000a81548173ffffffffffffffffffffffffffffffffffffffff021916908373ffffffffffffffffffffffffffffffffffffffff1602179055506040820151816002019081610e839190611a15565b506060820151816003015560808201518160040160006101000a81548160ff0219169083151502179055509050508373ffffffffffffffffffffffffffffffffffffffff163373ffffffffffffffffffffffffffffffffffffffff16827f8fbd2b7cfb4db91a4f4b683fc96c73b5adc9f9aee31b983df603621b12c549878686604051610f11929190611b23565b60405180910390a450505050565b60016020528060005260406000206000915054906101000a900460ff1681565b600080fd5b600080fd5b600073ffffffffffffffffffffffffffffffffffffffff82169050919050565b6000610f7482610f49565b9050919050565b610f8481610f69565b8114610f8f57600080fd5b50565b600081359050610fa181610f7b565b92915050565b600060208284031215610fbd57610fbc610f3f565b5b6000610fcb84828501610f92565b91505092915050565b6000819050919050565b610fe781610fd4565b8114610ff257600080fd5b50565b60008135905061100481610fde565b92915050565b6000602082840312156110205761101f610f3f565b5b600061102e84828501610ff5565b91505092915050565b61104081610f69565b82525050565b600081519050919050565b600082825260208201905092915050565b60005b83811015611080578082015181840152602081019050611065565b60008484015250505050565b6000601f19601f8301169050919050565b60006110a882611046565b6110b28185611051565b93506110c2818560208601611062565b6110cb8161108c565b840191505092915050565b6000819050919050565b6110e9816110d6565b82525050565b60008115159050919050565b611104816110ef565b82525050565b600060a08201905061111f6000830188611037565b61112c6020830187611037565b818103604083015261113e818661109d565b905061114d60608301856110e0565b61115a60808301846110fb565b9695505050505050565b600060c08201905061117960008301896110fb565b6111866020830188611037565b6111936040830187611037565b81810360608301526111a5818661109d565b90506111b460808301856110e0565b6111c160a08301846110fb565b979650505050505050565b60006020820190506111e16000830184611037565b92915050565b60006020820190506111fc60008301846110e0565b92915050565b61120b816110d6565b811461121657600080fd5b50565b60008135905061122881611202565b92915050565b6000806000806080858703121561124857611247610f3f565b5b600061125687828801610f92565b945050602061126787828801611219565b935050604061127887828801611219565b925050606061128987828801611219565b91505092959194509250565b60006020820190506112aa60008301846110fb565b92915050565b600080fd5b600080fd5b600080fd5b60008083601f8401126112d5576112d46112b0565b5b8235905067ffffffffffffffff8111156112f2576112f16112b5565b5b60208301915083600182028301111561130e5761130d6112ba565b5b9250929050565b6000806000806060858703121561132f5761132e610f3f565b5b600061133d87828801610f92565b945050602085013567ffffffffffffffff81111561135e5761135d610f44565b5b61136a878288016112bf565b9350935050604061137d87828801610ff5565b91505092959194509250565b7f4f6e6c79206f776e65722063616e20706572666f726d2074686973206163746960008201527f6f6e000000000000000000000000000000000000000000000000000000000000602082015250565b60006113e5602283611051565b91506113f082611389565b604082019050919050565b60006020820190508181036000830152611414816113d8565b9050919050565b7f497373756572206e6f7420617574686f72697a65640000000000000000000000600082015250565b6000611451601583611051565b915061145c8261141b565b602082019050919050565b6000602082019050818103600083015261148081611444565b9050919050565b7f4e487b7100000000000000000000000000000000000000000000000000000000600052602260045260246000fd5b600060028204905060018216806114ce57607f821691505b6020821081036114e1576114e0611487565b5b50919050565b7f49737375657220616c726561647920617574686f72697a656400000000000000600082015250565b600061151d601983611051565b9150611528826114e7565b602082019050919050565b6000602082019050818103600083015261154c81611510565b9050919050565b7f43616c6c6572206973206e6f7420616e20617574686f72697a6564206973737560008201527f6572000000000000000000000000000000000000000000000000000000000000602082015250565b60006115af602283611051565b91506115ba82611553565b604082019050919050565b600060208201905081810360008301526115de816115a2565b9050919050565b7f4e487b7100000000000000000000000000000000000000000000000000000000600052601160045260246000fd5b600061161f826110d6565b915061162a836110d6565b9250828201905080821115611642576116416115e5565b5b92915050565b6000611653826110d6565b915061165e836110d6565b925082820261166c816110d6565b91508282048414831517611683576116826115e5565b5b5092915050565b7f43726564656e7469616c20646f6573206e6f7420657869737400000000000000600082015250565b60006116c0601983611051565b91506116cb8261168a565b602082019050919050565b600060208201905081810360008301526116ef816116b3565b9050919050565b7f4f6e6c7920746865206973737565722063616e207265766f6b65000000000000600082015250565b600061172c601a83611051565b9150611737826116f6565b602082019050919050565b6000602082019050818103600083015261175b8161171f565b9050919050565b7f43726564656e7469616c20616c7265616479207265766f6b6564000000000000600082015250565b6000611798601a83611051565b91506117a382611762565b602082019050919050565b600060208201905081810360008301526117c78161178b565b9050919050565b7f43726564656e7469616c20616c72656164792065786973747300000000000000600082015250565b6000611804601983611051565b915061180f826117ce565b602082019050919050565b60006020820190508181036000830152611833816117f7565b9050919050565b7f4e487b7100000000000000000000000000000000000000000000000000000000600052604160045260246000fd5b60008190508160005260206000209050919050565b60006020601f8301049050919050565b600082821b905092915050565b6000600883026118cb7fffffffffffffffffffffffffffffffffffffffffffffffffffffffffffffffff8261188e565b6118d5868361188e565b95508019841693508086168417925050509392505050565b6000819050919050565b600061191261190d611908846110d6565b6118ed565b6110d6565b9050919050565b6000819050919050565b61192c836118f7565b61194061193882611919565b84845461189b565b825550505050565b600090565b611955611948565b611960818484611923565b505050565b5b818110156119845761197960008261194d565b600181019050611966565b5050565b601f8211156119c95761199a81611869565b6119a38461187e565b810160208510156119b2578190505b6119c66119be8561187e565b830182611965565b50505b505050565b600082821c905092915050565b60006119ec600019846008026119ce565b1980831691505092915050565b6000611a0583836119db565b9150826002028217905092915050565b611a1e82611046565b67ffffffffffffffff811115611a3757611a3661183a565b5b611a4182546114b6565b611a4c828285611988565b600060209050601f831160018114611a7f5760008415611a6d578287015190505b611a7785826119f9565b865550611adf565b601f198416611a8d86611869565b60005b82811015611ab557848901518255600182019150602085019450602081019050611a90565b86831015611ad25784890151611ace601f8916826119db565b8355505b6001600288020188555050505b505050505050565b82818337600083830152505050565b6000611b028385611051565b9350611b0f838584611ae7565b611b188361108c565b840190509392505050565b60006020820190508181036000830152611b3e818486611af6565b9050939250505056fea2646970667358221220798123198afa071946910dd462be39faa9a03f9772a0402a2063fb975eb89a6b64736f6c63430008140033",
  "linkReferences": {},
  "deployedLinkReferences": {}
}